{
  "address": "0x0DCd1Bf9A1b36cE34237eEaFef220932846BCD82",
  "abi": [
    {
      "inputs": [
        {
          "internalType": "address[]",
          "name": "_owners",
          "type": "address[]"
        },
        {
          "internalType": "uint256",
          "name": "_signaturesRequired",
          "type": "uint256"
        }
      ],
      "stateMutability": "nonpayable",
      "type": "constructor"
    },
    {
      "anonymous": false,
      "inputs": [
        {
          "indexed": true,
          "internalType": "address",
          "name": "sender",
          "type": "address"
        },
        {
          "indexed": false,
          "internalType": "uint256",
          "name": "amount",
          "type": "uint256"
        }
      ],
      "name": "Deposit",
      "type": "event"
    },
    {
      "anonymous": false,
      "inputs": [
        {
          "indexed": true,
          "internalType": "address",
          "name": "owner",
          "type": "address"
        },
        {
          "indexed": false,
          "internalType": "address payable",
          "name": "to",
          "type": "address"
        },
        {
          "indexed": false,
          "internalType": "uint256",
          "name": "value",
          "type": "uint256"
        },
        {
          "indexed": false,
          "internalType": "bytes",
          "name": "data",
          "type": "bytes"
        },
        {
          "indexed": false,
          "internalType": "uint256",
          "name": "nonce",
          "type": "uint256"
        },
        {
          "indexed": false,
          "internalType": "bytes32",
          "name": "hash",
          "type": "bytes32"
        },
        {
          "indexed": false,
          "internalType": "bytes",
          "name": "result",
          "type": "bytes"
        }
      ],
      "name": "ExecuteTransaction",
      "type": "event"
    },
    {
      "anonymous": false,
      "inputs": [
        {
          "indexed": true,
          "internalType": "address",
          "name": "owner",
          "type": "address"
        },
        {
          "indexed": false,
          "internalType": "bool",
          "name": "added",
          "type": "bool"
        }
      ],
      "name": "Owner",
      "type": "event"
    },
    {
      "inputs": [
        {
          "internalType": "address",
          "name": "newSigner",
          "type": "address"
        },
        {
          "internalType": "uint256",
          "name": "newSignaturesRequired",
          "type": "uint256"
        }
      ],
      "name": "addSigner",
      "outputs": [],
      "stateMutability": "nonpayable",
      "type": "function"
    },
    {
      "inputs": [
        {
          "internalType": "uint256",
          "name": "",
          "type": "uint256"
        }
      ],
      "name": "allOwners",
      "outputs": [
        {
          "internalType": "address",
          "name": "",
          "type": "address"
        }
      ],
      "stateMutability": "view",
      "type": "function"
    },
    {
      "inputs": [],
      "name": "chainId",
      "outputs": [
        {
          "internalType": "uint256",
          "name": "",
          "type": "uint256"
        }
      ],
      "stateMutability": "view",
      "type": "function"
    },
    {
      "inputs": [
        {
          "internalType": "address payable",
          "name": "to",
          "type": "address"
        },
        {
          "internalType": "uint256",
          "name": "value",
          "type": "uint256"
        },
        {
          "internalType": "bytes",
          "name": "data",
          "type": "bytes"
        },
        {
          "internalType": "bytes[]",
          "name": "signatures",
          "type": "bytes[]"
        }
      ],
      "name": "executeTransaction",
      "outputs": [
        {
          "internalType": "bytes",
          "name": "",
          "type": "bytes"
        }
      ],
      "stateMutability": "nonpayable",
      "type": "function"
    },
    {
      "inputs": [],
      "name": "getAllOwners",
      "outputs": [
        {
          "internalType": "address[]",
          "name": "",
          "type": "address[]"
        }
      ],
      "stateMutability": "view",
      "type": "function"
    },
    {
      "inputs": [
        {
          "internalType": "address",
          "name": "_addr",
          "type": "address"
        }
      ],
      "name": "getIndex",
      "outputs": [
        {
          "internalType": "uint256",
          "name": "",
          "type": "uint256"
        }
      ],
      "stateMutability": "view",
      "type": "function"
    },
    {
      "inputs": [
        {
          "internalType": "uint256",
          "name": "_nonce",
          "type": "uint256"
        },
        {
          "internalType": "address",
          "name": "to",
          "type": "address"
        },
        {
          "internalType": "uint256",
          "name": "value",
          "type": "uint256"
        },
        {
          "internalType": "bytes",
          "name": "data",
          "type": "bytes"
        }
      ],
      "name": "getTransactionHash",
      "outputs": [
        {
          "internalType": "bytes32",
          "name": "",
          "type": "bytes32"
        }
      ],
      "stateMutability": "view",
      "type": "function"
    },
    {
      "inputs": [
        {
          "internalType": "address",
          "name": "",
          "type": "address"
        }
      ],
      "name": "isOwner",
      "outputs": [
        {
          "internalType": "bool",
          "name": "",
          "type": "bool"
        }
      ],
      "stateMutability": "view",
      "type": "function"
    },
    {
      "inputs": [],
      "name": "nonce",
      "outputs": [
        {
          "internalType": "uint256",
          "name": "",
          "type": "uint256"
        }
      ],
      "stateMutability": "view",
      "type": "function"
    },
    {
      "inputs": [
        {
          "internalType": "bytes32",
          "name": "_hash",
          "type": "bytes32"
        },
        {
          "internalType": "bytes",
          "name": "_signature",
          "type": "bytes"
        }
      ],
      "name": "recover",
      "outputs": [
        {
          "internalType": "address",
          "name": "",
          "type": "address"
        }
      ],
      "stateMutability": "pure",
      "type": "function"
    },
    {
      "inputs": [
        {
          "internalType": "address",
          "name": "_addr",
          "type": "address"
        }
      ],
      "name": "removeOwner",
      "outputs": [],
      "stateMutability": "nonpayable",
      "type": "function"
    },
    {
      "inputs": [
        {
          "internalType": "address",
          "name": "oldSigner",
          "type": "address"
        },
        {
          "internalType": "uint256",
          "name": "newSignaturesRequired",
          "type": "uint256"
        }
      ],
      "name": "removeSigner",
      "outputs": [],
      "stateMutability": "nonpayable",
      "type": "function"
    },
    {
      "inputs": [],
      "name": "signaturesRequired",
      "outputs": [
        {
          "internalType": "uint256",
          "name": "",
          "type": "uint256"
        }
      ],
      "stateMutability": "view",
      "type": "function"
    },
    {
      "stateMutability": "payable",
      "type": "receive"
    }
  ],
  "transactionHash": "0xfa8418104c21c17929c281fcf2ecdfeb9e3b4d9d1786404df6b746e37e8fd3b2",
  "args": [
    [
      "0xf6ffc6916C2a3b8486d3C181209ed87AecC8bF08"
    ],
    1
  ],
  "solcInputHash": "7223a6b1efc032564d73204a89cd7cd3",
  "bytecode": "0x60806040523480156200001157600080fd5b50604051620017ea380380620017ea83398101604081905262000034916200029b565b600081116200008a5760405162461bcd60e51b815260206004820152601c60248201527f6d7573742068617665207265717569726564207369676e61747572650000000060448201526064015b60405180910390fd5b600281905560005b825181101562000275576000838281518110620000bf57634e487b7160e01b600052603260045260246000fd5b6020026020010151905060006001600160a01b0316816001600160a01b031614156200012e5760405162461bcd60e51b815260206004820152601560248201527f73657220706c7a20656e74657220616464726573730000000000000000000000604482015260640162000081565b6001600160a01b03811660009081526020819052604090205460ff1615620001995760405162461bcd60e51b815260206004820152601760248201527f73657220752061726520616c7265616479206f776e6572000000000000000000604482015260640162000081565b6001600160a01b0381166000908152602081905260409020805460ff191660019081179091558451859084908110620001e257634e487b7160e01b600052603260045260246000fd5b602090810291909101810151825460018101845560009384528284200180546001600160a01b0319166001600160a01b03928316179055831680835282825260409283902054925160ff90931615158352917ffe545f48304051c4029eb2da9927daa59da0414b4b084fdceaf2955b609b899e910160405180910390a250806200026c8162000377565b91505062000092565b505050620003b5565b80516001600160a01b03811681146200029657600080fd5b919050565b60008060408385031215620002ae578182fd5b82516001600160401b0380821115620002c5578384fd5b818501915085601f830112620002d9578384fd5b8151602082821115620002f057620002f06200039f565b8160051b604051601f19603f830116810181811086821117156200031857620003186200039f565b604052838152828101945085830182870184018b101562000337578889fd5b8896505b8487101562000364576200034f816200027e565b8652600196909601959483019483016200033b565b5097909101519698969750505050505050565b60006000198214156200039857634e487b7160e01b81526011600452602481fd5b5060010190565b634e487b7160e01b600052604160045260246000fd5b61142580620003c56000396000f3fe6080604052600436106100c65760003560e01c8063545a4a3c1161007f578063affed0e011610059578063affed0e01461026c578063b31610db14610282578063ce757d29146102a2578063d1fbffa0146102b857600080fd5b8063545a4a3c1461020857806365af1bed146102365780639a8a05921461025657600080fd5b80631516db091461010757806316c1274614610144578063173825d91461016657806319045a25146101885780632f54bf6e146101a85780633bad5426146101e857600080fd5b366101025760405134815233907fe1fffcc4923d04b559f4d29a8bfc6cda04eb5b0d3c460751c2402c5c5cc9109c9060200160405180910390a2005b600080fd5b34801561011357600080fd5b50610127610122366004611116565b6102e5565b6040516001600160a01b0390911681526020015b60405180910390f35b34801561015057600080fd5b5061015961030f565b60405161013b9190611284565b34801561017257600080fd5b50610186610181366004610f88565b610371565b005b34801561019457600080fd5b506101276101a33660046110d1565b6103bc565b3480156101b457600080fd5b506101d86101c3366004610f88565b60006020819052908152604090205460ff1681565b604051901515815260200161013b565b3480156101f457600080fd5b506101866102033660046110a6565b610426565b34801561021457600080fd5b5061022861022336600461112e565b6105af565b60405190815260200161013b565b34801561024257600080fd5b506101866102513660046110a6565b6105ee565b34801561026257600080fd5b5061022860045481565b34801561027857600080fd5b5061022860035481565b34801561028e57600080fd5b5061022861029d366004610f88565b6107d8565b3480156102ae57600080fd5b5061022860025481565b3480156102c457600080fd5b506102d86102d3366004610fa4565b610839565b60405161013b91906112d1565b600181815481106102f557600080fd5b6000918252602090912001546001600160a01b0316905081565b6060600180548060200260200160405190810160405280929190818152602001828054801561036757602002820191906000526020600020905b81546001600160a01b03168152600190910190602001808311610349575b5050505050905090565b600061037c826107d8565b90506001818154811061039f57634e487b7160e01b600052603260045260246000fd5b600091825260209091200180546001600160a01b03191690555050565b600061041f82610419856040517f19457468657265756d205369676e6564204d6573736167653a0a3332000000006020820152603c8101829052600090605c01604051602081830303815290604052805190602001209050919050565b90610b69565b9392505050565b3360009081526020819052604090205460ff1661045e5760405162461bcd60e51b8152600401610455906112e4565b60405180910390fd5b6001600160a01b03821660009081526020819052604090205460ff166104c65760405162461bcd60e51b815260206004820152601760248201527f72656d6f76655369676e65723a206e6f74206f776e65720000000000000000006044820152606401610455565b6000811161052b5760405162461bcd60e51b815260206004820152602c60248201527f72656d6f76655369676e65723a206d757374206265206e6f6e2d7a65726f207360448201526b1a59dcc81c995c5d5a5c995960a21b6064820152608401610455565b6001600160a01b0382166000908152602081905260409020805460ff19169055600281905561055982610371565b6001600160a01b0382166000818152602081815260409182902054915160ff909216151582527ffe545f48304051c4029eb2da9927daa59da0414b4b084fdceaf2955b609b899e91015b60405180910390a25050565b600030600454868686866040516020016105ce969594939291906111bb565b604051602081830303815290604052805190602001209050949350505050565b3360009081526020819052604090205460ff1661061d5760405162461bcd60e51b8152600401610455906112e4565b6001600160a01b0382166106735760405162461bcd60e51b815260206004820152601760248201527f6164645369676e65723a207a65726f20616464726573730000000000000000006044820152606401610455565b6001600160a01b03821660009081526020819052604090205460ff16156106dc5760405162461bcd60e51b815260206004820152601b60248201527f6164645369676e65723a206f776e6572206e6f7420756e6971756500000000006044820152606401610455565b6000811161073e5760405162461bcd60e51b815260206004820152602960248201527f6164645369676e65723a206d757374206265206e6f6e2d7a65726f2073696773604482015268081c995c5d5a5c995960ba1b6064820152608401610455565b6001600160a01b03821660008181526020818152604091829020805460ff191660019081178255600286905580548082019091557fb10e2d527612073b26eecdfd717e6a320cf44b4afac2b0732d9fcbe2b7fa0cf60180546001600160a01b0319168517905554915160ff909216151582527ffe545f48304051c4029eb2da9927daa59da0414b4b084fdceaf2955b609b899e91016105a3565b6000805b826001600160a01b03166001828154811061080757634e487b7160e01b600052603260045260246000fd5b6000918252602090912001546001600160a01b031614610833578061082b81611393565b9150506107dc565b92915050565b3360009081526020819052604090205460609060ff1661086b5760405162461bcd60e51b8152600401610455906112e4565b600061087b6003548787876105af565b60038054919250600061088d83611393565b919050555060008060005b855181101561099c5760006108d4858884815181106108c757634e487b7160e01b600052603260045260246000fd5b60200260200101516103bc565b9050826001600160a01b0316816001600160a01b0316116109555760405162461bcd60e51b815260206004820152603560248201527f657865637574655472616e73616374696f6e3a206475706c6963617465206f7260448201527420756e6f726465726564207369676e61747572657360581b6064820152608401610455565b6001600160a01b038116600090815260208190526040902054909250829060ff1615610989578361098581611393565b9450505b508061099481611393565b915050610898565b50600254821015610a075760405162461bcd60e51b815260206004820152602f60248201527f657865637574655472616e73616374696f6e3a206e6f7420656e6f756768207660448201526e616c6964207369676e61747572657360881b6064820152608401610455565b600080896001600160a01b03168989604051610a239190611216565b60006040518083038185875af1925050503d8060008114610a60576040519150601f19603f3d011682016040523d82523d6000602084013e610a65565b606091505b509150915081610b035760405162461bcd60e51b815260206004820152605760248201527f53657220646f20796f752068617665206d6f6e657920696e2074686520736d6160448201527f727420636f6e74726163743f3f20486f772063616e20796f752073656e64207360648201527f6f6d657468696e6720796f7520646f6e27742068617665000000000000000000608482015260a401610455565b336001600160a01b03167f9053e9ec105157fac8c9308d63e6b22be5f50fe915a3e567419b624311a02d748b8b8b6001600354610b40919061134c565b8a87604051610b5496959493929190611232565b60405180910390a29998505050505050505050565b6000806000610b788585610b8d565b91509150610b8581610bfd565b509392505050565b600080825160411415610bc45760208301516040840151606085015160001a610bb887828585610e01565b94509450505050610bf6565b825160401415610bee5760208301516040840151610be3868383610eee565b935093505050610bf6565b506000905060025b9250929050565b6000816004811115610c1f57634e487b7160e01b600052602160045260246000fd5b1415610c285750565b6001816004811115610c4a57634e487b7160e01b600052602160045260246000fd5b1415610c985760405162461bcd60e51b815260206004820152601860248201527f45434453413a20696e76616c6964207369676e617475726500000000000000006044820152606401610455565b6002816004811115610cba57634e487b7160e01b600052602160045260246000fd5b1415610d085760405162461bcd60e51b815260206004820152601f60248201527f45434453413a20696e76616c6964207369676e6174757265206c656e677468006044820152606401610455565b6003816004811115610d2a57634e487b7160e01b600052602160045260246000fd5b1415610d835760405162461bcd60e51b815260206004820152602260248201527f45434453413a20696e76616c6964207369676e6174757265202773272076616c604482015261756560f01b6064820152608401610455565b6004816004811115610da557634e487b7160e01b600052602160045260246000fd5b1415610dfe5760405162461bcd60e51b815260206004820152602260248201527f45434453413a20696e76616c6964207369676e6174757265202776272076616c604482015261756560f01b6064820152608401610455565b50565b6000807f7fffffffffffffffffffffffffffffff5d576e7357a4501ddfe92f46681b20a0831115610e385750600090506003610ee5565b8460ff16601b14158015610e5057508460ff16601c14155b15610e615750600090506004610ee5565b6040805160008082526020820180845289905260ff881692820192909252606081018690526080810185905260019060a0016020604051602081039080840390855afa158015610eb5573d6000803e3d6000fd5b5050604051601f1901519150506001600160a01b038116610ede57600060019250925050610ee5565b9150600090505b94509492505050565b6000806001600160ff1b03831660ff84901c601b01610f0f87828885610e01565b935093505050935093915050565b600082601f830112610f2d578081fd5b813567ffffffffffffffff811115610f4757610f476113c4565b610f5a601f8201601f191660200161131b565b818152846020838601011115610f6e578283fd5b816020850160208301379081016020019190915292915050565b600060208284031215610f99578081fd5b813561041f816113da565b60008060008060808587031215610fb9578283fd5b8435610fc4816113da565b93506020858101359350604086013567ffffffffffffffff80821115610fe8578485fd5b610ff489838a01610f1d565b94506060880135915080821115611009578384fd5b818801915088601f83011261101c578384fd5b81358181111561102e5761102e6113c4565b8060051b61103d85820161131b565b8281528581019085870183870188018e1015611057578889fd5b8893505b848410156110945780358681111561107157898afd5b61107f8f8a838b0101610f1d565b8452506001939093019291870191870161105b565b50999c989b5096995050505050505050565b600080604083850312156110b8578182fd5b82356110c3816113da565b946020939093013593505050565b600080604083850312156110e3578182fd5b82359150602083013567ffffffffffffffff811115611100578182fd5b61110c85828601610f1d565b9150509250929050565b600060208284031215611127578081fd5b5035919050565b60008060008060808587031215611143578384fd5b843593506020850135611155816113da565b925060408501359150606085013567ffffffffffffffff811115611177578182fd5b61118387828801610f1d565b91505092959194509250565b600081518084526111a7816020860160208601611363565b601f01601f19169290920160200192915050565b60006bffffffffffffffffffffffff19808960601b168352876014840152866034840152808660601b166054840152508360688301528251611204816088850160208701611363565b91909101608801979650505050505050565b60008251611228818460208701611363565b9190910192915050565b60018060a01b038716815285602082015260c06040820152600061125960c083018761118f565b85606084015284608084015282810360a0840152611277818561118f565b9998505050505050505050565b6020808252825182820181905260009190848201906040850190845b818110156112c55783516001600160a01b0316835292840192918401916001016112a0565b50909695505050505050565b60208152600061041f602083018461118f565b60208082526018908201527f73657220796f7520617265206e6f7420616e206f776e65720000000000000000604082015260600190565b604051601f8201601f1916810167ffffffffffffffff81118282101715611344576113446113c4565b604052919050565b60008282101561135e5761135e6113ae565b500390565b60005b8381101561137e578181015183820152602001611366565b8381111561138d576000848401525b50505050565b60006000198214156113a7576113a76113ae565b5060010190565b634e487b7160e01b600052601160045260246000fd5b634e487b7160e01b600052604160045260246000fd5b6001600160a01b0381168114610dfe57600080fdfea2646970667358221220416196051a39051b960d06ad74539d5eac1b27f4cf0ef2fe0aa257f0009b46c564736f6c63430008040033",
  "devdoc": {
    "kind": "dev",
    "methods": {},
    "version": 1
  },
  "userdoc": {
    "kind": "user",
    "methods": {},
    "version": 1
  },
  "storageLayout": {
    "storage": [
      {
        "astId": 630,
        "contract": "contracts/MultiSig.sol:MultiSig",
        "label": "isOwner",
        "offset": 0,
        "slot": "0",
        "type": "t_mapping(t_address,t_bool)"
      },
      {
        "astId": 633,
        "contract": "contracts/MultiSig.sol:MultiSig",
        "label": "allOwners",
        "offset": 0,
        "slot": "1",
        "type": "t_array(t_address)dyn_storage"
      },
      {
        "astId": 635,
        "contract": "contracts/MultiSig.sol:MultiSig",
        "label": "signaturesRequired",
        "offset": 0,
        "slot": "2",
        "type": "t_uint256"
      },
      {
        "astId": 637,
        "contract": "contracts/MultiSig.sol:MultiSig",
        "label": "nonce",
        "offset": 0,
        "slot": "3",
        "type": "t_uint256"
      },
      {
        "astId": 639,
        "contract": "contracts/MultiSig.sol:MultiSig",
        "label": "chainId",
        "offset": 0,
        "slot": "4",
        "type": "t_uint256"
      }
    ],
    "types": {
      "t_address": {
        "encoding": "inplace",
        "label": "address",
        "numberOfBytes": "20"
      },
      "t_array(t_address)dyn_storage": {
        "base": "t_address",
        "encoding": "dynamic_array",
        "label": "address[]",
        "numberOfBytes": "32"
      },
      "t_bool": {
        "encoding": "inplace",
        "label": "bool",
        "numberOfBytes": "1"
      },
      "t_mapping(t_address,t_bool)": {
        "encoding": "mapping",
        "key": "t_address",
        "label": "mapping(address => bool)",
        "numberOfBytes": "32",
        "value": "t_bool"
      },
      "t_uint256": {
        "encoding": "inplace",
        "label": "uint256",
        "numberOfBytes": "32"
      }
    }
  }
}