{
  "_format": "hh-sol-artifact-1",
  "contractName": "MultiSig",
  "sourceName": "contracts/MultiSig.sol",
  "abi": [
    {
      "inputs": [
        {
          "internalType": "address[]",
          "name": "_owners",
          "type": "address[]"
        },
        {
          "internalType": "uint256",
          "name": "_signaturesRequired",
          "type": "uint256"
        }
      ],
      "stateMutability": "nonpayable",
      "type": "constructor"
    },
    {
      "anonymous": false,
      "inputs": [
        {
          "indexed": true,
          "internalType": "address",
          "name": "sender",
          "type": "address"
        },
        {
          "indexed": false,
          "internalType": "uint256",
          "name": "amount",
          "type": "uint256"
        }
      ],
      "name": "Deposit",
      "type": "event"
    },
    {
      "anonymous": false,
      "inputs": [
        {
          "indexed": true,
          "internalType": "address",
          "name": "owner",
          "type": "address"
        },
        {
          "indexed": false,
          "internalType": "address payable",
          "name": "to",
          "type": "address"
        },
        {
          "indexed": false,
          "internalType": "uint256",
          "name": "value",
          "type": "uint256"
        },
        {
          "indexed": false,
          "internalType": "bytes",
          "name": "data",
          "type": "bytes"
        },
        {
          "indexed": false,
          "internalType": "uint256",
          "name": "nonce",
          "type": "uint256"
        },
        {
          "indexed": false,
          "internalType": "bytes32",
          "name": "hash",
          "type": "bytes32"
        },
        {
          "indexed": false,
          "internalType": "bytes",
          "name": "result",
          "type": "bytes"
        }
      ],
      "name": "ExecuteTransaction",
      "type": "event"
    },
    {
      "anonymous": false,
      "inputs": [
        {
          "indexed": true,
          "internalType": "address",
          "name": "owner",
          "type": "address"
        },
        {
          "indexed": false,
          "internalType": "bool",
          "name": "added",
          "type": "bool"
        }
      ],
      "name": "Owner",
      "type": "event"
    },
    {
      "inputs": [
        {
          "internalType": "address",
          "name": "newSigner",
          "type": "address"
        },
        {
          "internalType": "uint256",
          "name": "newSignaturesRequired",
          "type": "uint256"
        }
      ],
      "name": "addSigner",
      "outputs": [],
      "stateMutability": "nonpayable",
      "type": "function"
    },
    {
      "inputs": [],
      "name": "chainId",
      "outputs": [
        {
          "internalType": "uint256",
          "name": "",
          "type": "uint256"
        }
      ],
      "stateMutability": "view",
      "type": "function"
    },
    {
      "inputs": [
        {
          "internalType": "address payable",
          "name": "to",
          "type": "address"
        },
        {
          "internalType": "uint256",
          "name": "value",
          "type": "uint256"
        },
        {
          "internalType": "bytes",
          "name": "data",
          "type": "bytes"
        },
        {
          "internalType": "bytes[]",
          "name": "signatures",
          "type": "bytes[]"
        }
      ],
      "name": "executeTransaction",
      "outputs": [
        {
          "internalType": "bytes",
          "name": "",
          "type": "bytes"
        }
      ],
      "stateMutability": "nonpayable",
      "type": "function"
    },
    {
      "inputs": [
        {
          "internalType": "uint256",
          "name": "_nonce",
          "type": "uint256"
        },
        {
          "internalType": "address",
          "name": "to",
          "type": "address"
        },
        {
          "internalType": "uint256",
          "name": "value",
          "type": "uint256"
        },
        {
          "internalType": "bytes",
          "name": "data",
          "type": "bytes"
        }
      ],
      "name": "getTransactionHash",
      "outputs": [
        {
          "internalType": "bytes32",
          "name": "",
          "type": "bytes32"
        }
      ],
      "stateMutability": "view",
      "type": "function"
    },
    {
      "inputs": [
        {
          "internalType": "address",
          "name": "",
          "type": "address"
        }
      ],
      "name": "isOwner",
      "outputs": [
        {
          "internalType": "bool",
          "name": "",
          "type": "bool"
        }
      ],
      "stateMutability": "view",
      "type": "function"
    },
    {
      "inputs": [],
      "name": "lastTest",
      "outputs": [
        {
          "internalType": "uint256",
          "name": "",
          "type": "uint256"
        }
      ],
      "stateMutability": "view",
      "type": "function"
    },
    {
      "inputs": [],
      "name": "nonce",
      "outputs": [
        {
          "internalType": "uint256",
          "name": "",
          "type": "uint256"
        }
      ],
      "stateMutability": "view",
      "type": "function"
    },
    {
      "inputs": [
        {
          "internalType": "uint256",
          "name": "",
          "type": "uint256"
        }
      ],
      "name": "owners",
      "outputs": [
        {
          "internalType": "address",
          "name": "",
          "type": "address"
        }
      ],
      "stateMutability": "view",
      "type": "function"
    },
    {
      "inputs": [
        {
          "internalType": "bytes32",
          "name": "_hash",
          "type": "bytes32"
        },
        {
          "internalType": "bytes",
          "name": "_signature",
          "type": "bytes"
        }
      ],
      "name": "recover",
      "outputs": [
        {
          "internalType": "address",
          "name": "",
          "type": "address"
        }
      ],
      "stateMutability": "pure",
      "type": "function"
    },
    {
      "inputs": [
        {
          "internalType": "address",
          "name": "oldSigner",
          "type": "address"
        },
        {
          "internalType": "uint256",
          "name": "newSignaturesRequired",
          "type": "uint256"
        }
      ],
      "name": "removeSigner",
      "outputs": [],
      "stateMutability": "nonpayable",
      "type": "function"
    },
    {
      "inputs": [],
      "name": "signaturesRequired",
      "outputs": [
        {
          "internalType": "uint256",
          "name": "",
          "type": "uint256"
        }
      ],
      "stateMutability": "view",
      "type": "function"
    },
    {
      "inputs": [
        {
          "internalType": "uint256",
          "name": "",
          "type": "uint256"
        }
      ],
      "name": "testingList",
      "outputs": [
        {
          "internalType": "uint256",
          "name": "",
          "type": "uint256"
        }
      ],
      "stateMutability": "view",
      "type": "function"
    },
    {
      "stateMutability": "payable",
      "type": "receive"
    }
  ],
  "bytecode": "0x60e060405260016080908152600260a052600360c0819052620000259160059162000278565b5060006006553480156200003857600080fd5b5060405162001626380380620016268339810160408190526200005b9162000301565b60008111620000b15760405162461bcd60e51b815260206004820152601c60248201527f6d7573742068617665207265717569726564207369676e61747572650000000060448201526064015b60405180910390fd5b600181905560005b82518110156200026f576000838281518110620000e657634e487b7160e01b600052603260045260246000fd5b6020026020010151905060006001600160a01b0316816001600160a01b03161415620001555760405162461bcd60e51b815260206004820152601560248201527f73657220706c7a20656e746572206164647265737300000000000000000000006044820152606401620000a8565b6001600160a01b03811660009081526020819052604090205460ff1615620001c05760405162461bcd60e51b815260206004820152601760248201527f73657220752061726520616c7265616479206f776e65720000000000000000006044820152606401620000a8565b6001600160a01b03811660008181526020818152604091829020805460ff1916600190811782556004805491820190557f8a35acfbc15ff81a39ae7d344fd709f28e8600b4aa8c65c6b64bfe7fe36bd19b0180546001600160a01b0319168517905554915160ff909216151582527ffe545f48304051c4029eb2da9927daa59da0414b4b084fdceaf2955b609b899e910160405180910390a250806200026681620003dd565b915050620000b9565b5050506200041b565b828054828255906000526020600020908101928215620002bb579160200282015b82811115620002bb578251829060ff1690559160200191906001019062000299565b50620002c9929150620002cd565b5090565b5b80821115620002c95760008155600101620002ce565b80516001600160a01b0381168114620002fc57600080fd5b919050565b6000806040838503121562000314578182fd5b82516001600160401b03808211156200032b578384fd5b818501915085601f8301126200033f578384fd5b815160208282111562000356576200035662000405565b8160051b604051601f19603f830116810181811086821117156200037e576200037e62000405565b604052838152828101945085830182870184018b10156200039d578889fd5b8896505b84871015620003ca57620003b581620002e4565b865260019690960195948301948301620003a1565b5097909101519698969750505050505050565b6000600019821415620003fe57634e487b7160e01b81526011600452602481fd5b5060010190565b634e487b7160e01b600052604160045260246000fd5b6111fb806200042b6000396000f3fe6080604052600436106100ab5760003560e01c806369b52d241161006457806369b52d24146101f95780639a8a05921461020f578063affed0e014610225578063c8beaba01461023b578063ce757d291461025b578063d1fbffa01461027157600080fd5b8063025e7c27146100ec57806319045a25146101295780632f54bf6e146101495780633bad542614610189578063545a4a3c146101ab57806365af1bed146101d957600080fd5b366100e75760405134815233907fe1fffcc4923d04b559f4d29a8bfc6cda04eb5b0d3c460751c2402c5c5cc9109c9060200160405180910390a2005b600080fd5b3480156100f857600080fd5b5061010c610107366004610f39565b61029e565b6040516001600160a01b0390911681526020015b60405180910390f35b34801561013557600080fd5b5061010c610144366004610ef4565b6102c8565b34801561015557600080fd5b50610179610164366004610dab565b60006020819052908152604090205460ff1681565b6040519015158152602001610120565b34801561019557600080fd5b506101a96101a4366004610ec9565b610332565b005b3480156101b757600080fd5b506101cb6101c6366004610f51565b61049a565b604051908152602001610120565b3480156101e557600080fd5b506101a96101f4366004610ec9565b6104d9565b34801561020557600080fd5b506101cb60065481565b34801561021b57600080fd5b506101cb60035481565b34801561023157600080fd5b506101cb60025481565b34801561024757600080fd5b506101cb610256366004610f39565b610687565b34801561026757600080fd5b506101cb60015481565b34801561027d57600080fd5b5061029161028c366004610dc7565b6106a8565b60405161012091906110a7565b600481815481106102ae57600080fd5b6000918252602090912001546001600160a01b0316905081565b600061032b82610325856040517f19457468657265756d205369676e6564204d6573736167653a0a3332000000006020820152603c8101829052600090605c01604051602081830303815290604052805190602001209050919050565b9061098c565b9392505050565b3360009081526020819052604090205460ff1661036a5760405162461bcd60e51b8152600401610361906110ba565b60405180910390fd5b6001600160a01b03821660009081526020819052604090205460ff166103d25760405162461bcd60e51b815260206004820152601760248201527f72656d6f76655369676e65723a206e6f74206f776e65720000000000000000006044820152606401610361565b600081116104375760405162461bcd60e51b815260206004820152602c60248201527f72656d6f76655369676e65723a206d757374206265206e6f6e2d7a65726f207360448201526b1a59dcc81c995c5d5a5c995960a21b6064820152608401610361565b6001600160a01b03821660008181526020818152604091829020805460ff19168155600185905554915160ff909216151582527ffe545f48304051c4029eb2da9927daa59da0414b4b084fdceaf2955b609b899e91015b60405180910390a25050565b600030600354868686866040516020016104b996959493929190610fde565b604051602081830303815290604052805190602001209050949350505050565b3360009081526020819052604090205460ff166105085760405162461bcd60e51b8152600401610361906110ba565b6001600160a01b03821661055e5760405162461bcd60e51b815260206004820152601760248201527f6164645369676e65723a207a65726f20616464726573730000000000000000006044820152606401610361565b6001600160a01b03821660009081526020819052604090205460ff16156105c75760405162461bcd60e51b815260206004820152601b60248201527f6164645369676e65723a206f776e6572206e6f7420756e6971756500000000006044820152606401610361565b600081116106295760405162461bcd60e51b815260206004820152602960248201527f6164645369676e65723a206d757374206265206e6f6e2d7a65726f2073696773604482015268081c995c5d5a5c995960ba1b6064820152608401610361565b6001600160a01b03821660008181526020818152604091829020805460ff19166001908117825585905554915160ff909216151582527ffe545f48304051c4029eb2da9927daa59da0414b4b084fdceaf2955b609b899e910161048e565b6005818154811061069757600080fd5b600091825260209091200154905081565b3360009081526020819052604090205460609060ff166106da5760405162461bcd60e51b8152600401610361906110ba565b60006106ea60025487878761049a565b6002805491925060006106fc83611169565b919050555060008060005b855181101561080b5760006107438588848151811061073657634e487b7160e01b600052603260045260246000fd5b60200260200101516102c8565b9050826001600160a01b0316816001600160a01b0316116107c45760405162461bcd60e51b815260206004820152603560248201527f657865637574655472616e73616374696f6e3a206475706c6963617465206f7260448201527420756e6f726465726564207369676e61747572657360581b6064820152608401610361565b6001600160a01b038116600090815260208190526040902054909250829060ff16156107f857836107f481611169565b9450505b508061080381611169565b915050610707565b506001548210156108765760405162461bcd60e51b815260206004820152602f60248201527f657865637574655472616e73616374696f6e3a206e6f7420656e6f756768207660448201526e616c6964207369676e61747572657360881b6064820152608401610361565b600080896001600160a01b031689896040516108929190611039565b60006040518083038185875af1925050503d80600081146108cf576040519150601f19603f3d011682016040523d82523d6000602084013e6108d4565b606091505b5091509150816109265760405162461bcd60e51b815260206004820152601d60248201527f657865637574655472616e73616374696f6e3a207478206661696c65640000006044820152606401610361565b336001600160a01b03167f9053e9ec105157fac8c9308d63e6b22be5f50fe915a3e567419b624311a02d748b8b8b60016002546109639190611122565b8a8760405161097796959493929190611055565b60405180910390a29998505050505050505050565b600080600061099b85856109b0565b915091506109a881610a20565b509392505050565b6000808251604114156109e75760208301516040840151606085015160001a6109db87828585610c24565b94509450505050610a19565b825160401415610a115760208301516040840151610a06868383610d11565b935093505050610a19565b506000905060025b9250929050565b6000816004811115610a4257634e487b7160e01b600052602160045260246000fd5b1415610a4b5750565b6001816004811115610a6d57634e487b7160e01b600052602160045260246000fd5b1415610abb5760405162461bcd60e51b815260206004820152601860248201527f45434453413a20696e76616c6964207369676e617475726500000000000000006044820152606401610361565b6002816004811115610add57634e487b7160e01b600052602160045260246000fd5b1415610b2b5760405162461bcd60e51b815260206004820152601f60248201527f45434453413a20696e76616c6964207369676e6174757265206c656e677468006044820152606401610361565b6003816004811115610b4d57634e487b7160e01b600052602160045260246000fd5b1415610ba65760405162461bcd60e51b815260206004820152602260248201527f45434453413a20696e76616c6964207369676e6174757265202773272076616c604482015261756560f01b6064820152608401610361565b6004816004811115610bc857634e487b7160e01b600052602160045260246000fd5b1415610c215760405162461bcd60e51b815260206004820152602260248201527f45434453413a20696e76616c6964207369676e6174757265202776272076616c604482015261756560f01b6064820152608401610361565b50565b6000807f7fffffffffffffffffffffffffffffff5d576e7357a4501ddfe92f46681b20a0831115610c5b5750600090506003610d08565b8460ff16601b14158015610c7357508460ff16601c14155b15610c845750600090506004610d08565b6040805160008082526020820180845289905260ff881692820192909252606081018690526080810185905260019060a0016020604051602081039080840390855afa158015610cd8573d6000803e3d6000fd5b5050604051601f1901519150506001600160a01b038116610d0157600060019250925050610d08565b9150600090505b94509492505050565b6000806001600160ff1b03831660ff84901c601b01610d3287828885610c24565b935093505050935093915050565b600082601f830112610d50578081fd5b813567ffffffffffffffff811115610d6a57610d6a61119a565b610d7d601f8201601f19166020016110f1565b818152846020838601011115610d91578283fd5b816020850160208301379081016020019190915292915050565b600060208284031215610dbc578081fd5b813561032b816111b0565b60008060008060808587031215610ddc578283fd5b8435610de7816111b0565b93506020858101359350604086013567ffffffffffffffff80821115610e0b578485fd5b610e1789838a01610d40565b94506060880135915080821115610e2c578384fd5b818801915088601f830112610e3f578384fd5b813581811115610e5157610e5161119a565b8060051b610e608582016110f1565b8281528581019085870183870188018e1015610e7a578889fd5b8893505b84841015610eb757803586811115610e9457898afd5b610ea28f8a838b0101610d40565b84525060019390930192918701918701610e7e565b50999c989b5096995050505050505050565b60008060408385031215610edb578182fd5b8235610ee6816111b0565b946020939093013593505050565b60008060408385031215610f06578182fd5b82359150602083013567ffffffffffffffff811115610f23578182fd5b610f2f85828601610d40565b9150509250929050565b600060208284031215610f4a578081fd5b5035919050565b60008060008060808587031215610f66578384fd5b843593506020850135610f78816111b0565b925060408501359150606085013567ffffffffffffffff811115610f9a578182fd5b610fa687828801610d40565b91505092959194509250565b60008151808452610fca816020860160208601611139565b601f01601f19169290920160200192915050565b60006bffffffffffffffffffffffff19808960601b168352876014840152866034840152808660601b166054840152508360688301528251611027816088850160208701611139565b91909101608801979650505050505050565b6000825161104b818460208701611139565b9190910192915050565b60018060a01b038716815285602082015260c06040820152600061107c60c0830187610fb2565b85606084015284608084015282810360a084015261109a8185610fb2565b9998505050505050505050565b60208152600061032b6020830184610fb2565b60208082526018908201527f73657220796f7520617265206e6f7420616e206f776e65720000000000000000604082015260600190565b604051601f8201601f1916810167ffffffffffffffff8111828210171561111a5761111a61119a565b604052919050565b60008282101561113457611134611184565b500390565b60005b8381101561115457818101518382015260200161113c565b83811115611163576000848401525b50505050565b600060001982141561117d5761117d611184565b5060010190565b634e487b7160e01b600052601160045260246000fd5b634e487b7160e01b600052604160045260246000fd5b6001600160a01b0381168114610c2157600080fdfea2646970667358221220619b38d10aea6250b2dcb37d5a7828ad8b1fe2e0a69987f2a3b4b8fb33ec605264736f6c63430008040033",
  "linkReferences": {},
  "deployedLinkReferences": {}
}