{
  "_format": "hh-sol-artifact-1",
  "contractName": "MultiSig",
  "sourceName": "contracts/MultiSig.sol",
  "abi": [
    {
      "inputs": [
        {
          "internalType": "address[]",
          "name": "_owners",
          "type": "address[]"
        },
        {
          "internalType": "uint256",
          "name": "_signaturesRequired",
          "type": "uint256"
        }
      ],
      "stateMutability": "nonpayable",
      "type": "constructor"
    },
    {
      "anonymous": false,
      "inputs": [
        {
          "indexed": true,
          "internalType": "address",
          "name": "sender",
          "type": "address"
        },
        {
          "indexed": false,
          "internalType": "uint256",
          "name": "amount",
          "type": "uint256"
        }
      ],
      "name": "Deposit",
      "type": "event"
    },
    {
      "anonymous": false,
      "inputs": [
        {
          "indexed": true,
          "internalType": "address",
          "name": "owner",
          "type": "address"
        },
        {
          "indexed": false,
          "internalType": "address payable",
          "name": "to",
          "type": "address"
        },
        {
          "indexed": false,
          "internalType": "uint256",
          "name": "value",
          "type": "uint256"
        },
        {
          "indexed": false,
          "internalType": "bytes",
          "name": "data",
          "type": "bytes"
        },
        {
          "indexed": false,
          "internalType": "uint256",
          "name": "nonce",
          "type": "uint256"
        },
        {
          "indexed": false,
          "internalType": "bytes32",
          "name": "hash",
          "type": "bytes32"
        },
        {
          "indexed": false,
          "internalType": "bytes",
          "name": "result",
          "type": "bytes"
        }
      ],
      "name": "ExecuteTransaction",
      "type": "event"
    },
    {
      "anonymous": false,
      "inputs": [
        {
          "indexed": true,
          "internalType": "address",
          "name": "owner",
          "type": "address"
        },
        {
          "indexed": false,
          "internalType": "bool",
          "name": "added",
          "type": "bool"
        }
      ],
      "name": "Owner",
      "type": "event"
    },
    {
      "inputs": [
        {
          "internalType": "address",
          "name": "newSigner",
          "type": "address"
        },
        {
          "internalType": "uint256",
          "name": "newSignaturesRequired",
          "type": "uint256"
        }
      ],
      "name": "addSigner",
      "outputs": [],
      "stateMutability": "nonpayable",
      "type": "function"
    },
    {
      "inputs": [],
      "name": "chainId",
      "outputs": [
        {
          "internalType": "uint256",
          "name": "",
          "type": "uint256"
        }
      ],
      "stateMutability": "view",
      "type": "function"
    },
    {
      "inputs": [
        {
          "internalType": "address payable",
          "name": "to",
          "type": "address"
        },
        {
          "internalType": "uint256",
          "name": "value",
          "type": "uint256"
        },
        {
          "internalType": "bytes",
          "name": "data",
          "type": "bytes"
        },
        {
          "internalType": "bytes[]",
          "name": "signatures",
          "type": "bytes[]"
        }
      ],
      "name": "executeTransaction",
      "outputs": [
        {
          "internalType": "bytes",
          "name": "",
          "type": "bytes"
        }
      ],
      "stateMutability": "nonpayable",
      "type": "function"
    },
    {
      "inputs": [
        {
          "internalType": "uint256",
          "name": "_nonce",
          "type": "uint256"
        },
        {
          "internalType": "address",
          "name": "to",
          "type": "address"
        },
        {
          "internalType": "uint256",
          "name": "value",
          "type": "uint256"
        },
        {
          "internalType": "bytes",
          "name": "data",
          "type": "bytes"
        }
      ],
      "name": "getTransactionHash",
      "outputs": [
        {
          "internalType": "bytes32",
          "name": "",
          "type": "bytes32"
        }
      ],
      "stateMutability": "view",
      "type": "function"
    },
    {
      "inputs": [
        {
          "internalType": "address",
          "name": "",
          "type": "address"
        }
      ],
      "name": "isOwner",
      "outputs": [
        {
          "internalType": "bool",
          "name": "",
          "type": "bool"
        }
      ],
      "stateMutability": "view",
      "type": "function"
    },
    {
      "inputs": [],
      "name": "nonce",
      "outputs": [
        {
          "internalType": "uint256",
          "name": "",
          "type": "uint256"
        }
      ],
      "stateMutability": "view",
      "type": "function"
    },
    {
      "inputs": [
        {
          "internalType": "uint256",
          "name": "",
          "type": "uint256"
        }
      ],
      "name": "owners",
      "outputs": [
        {
          "internalType": "address",
          "name": "",
          "type": "address"
        }
      ],
      "stateMutability": "view",
      "type": "function"
    },
    {
      "inputs": [
        {
          "internalType": "bytes32",
          "name": "_hash",
          "type": "bytes32"
        },
        {
          "internalType": "bytes",
          "name": "_signature",
          "type": "bytes"
        }
      ],
      "name": "recover",
      "outputs": [
        {
          "internalType": "address",
          "name": "",
          "type": "address"
        }
      ],
      "stateMutability": "pure",
      "type": "function"
    },
    {
      "inputs": [
        {
          "internalType": "address",
          "name": "oldSigner",
          "type": "address"
        },
        {
          "internalType": "uint256",
          "name": "newSignaturesRequired",
          "type": "uint256"
        }
      ],
      "name": "removeSigner",
      "outputs": [],
      "stateMutability": "nonpayable",
      "type": "function"
    },
    {
      "inputs": [],
      "name": "signaturesRequired",
      "outputs": [
        {
          "internalType": "uint256",
          "name": "",
          "type": "uint256"
        }
      ],
      "stateMutability": "view",
      "type": "function"
    },
    {
      "stateMutability": "payable",
      "type": "receive"
    }
  ],
  "bytecode": "0x60806040523480156200001157600080fd5b506040516200152b3803806200152b83398101604081905262000034916200026e565b600081116200008a5760405162461bcd60e51b815260206004820152601c60248201527f6d7573742068617665207265717569726564207369676e61747572650000000060448201526064015b60405180910390fd5b600281905560005b825181101562000248576000838281518110620000bf57634e487b7160e01b600052603260045260246000fd5b6020026020010151905060006001600160a01b0316816001600160a01b031614156200012e5760405162461bcd60e51b815260206004820152601560248201527f73657220706c7a20656e74657220616464726573730000000000000000000000604482015260640162000081565b6001600160a01b03811660009081526001602052604090205460ff1615620001995760405162461bcd60e51b815260206004820152601760248201527f73657220752061726520616c7265616479206f776e6572000000000000000000604482015260640162000081565b6001600160a01b0381166000818152600160208181526040808420805460ff19168417815584549384019094557f290decd9548b62a8d60345a988386fc84ba6bc95484008f6362f93160ef3e56390920180546001600160a01b031916851790559154905160ff909116151581527ffe545f48304051c4029eb2da9927daa59da0414b4b084fdceaf2955b609b899e910160405180910390a250806200023f816200034a565b91505062000092565b50505062000388565b80516001600160a01b03811681146200026957600080fd5b919050565b6000806040838503121562000281578182fd5b82516001600160401b038082111562000298578384fd5b818501915085601f830112620002ac578384fd5b8151602082821115620002c357620002c362000372565b8160051b604051601f19603f83011681018181108682111715620002eb57620002eb62000372565b604052838152828101945085830182870184018b10156200030a578889fd5b8896505b848710156200033757620003228162000251565b8652600196909601959483019483016200030e565b5097909101519698969750505050505050565b60006000198214156200036b57634e487b7160e01b81526011600452602481fd5b5060010190565b634e487b7160e01b600052604160045260246000fd5b61119380620003986000396000f3fe6080604052600436106100955760003560e01c806365af1bed1161005957806365af1bed146101c35780639a8a0592146101e3578063affed0e0146101f9578063ce757d291461020f578063d1fbffa01461022557600080fd5b8063025e7c27146100d657806319045a25146101135780632f54bf6e146101335780633bad542614610173578063545a4a3c1461019557600080fd5b366100d15760405134815233907fe1fffcc4923d04b559f4d29a8bfc6cda04eb5b0d3c460751c2402c5c5cc9109c9060200160405180910390a2005b600080fd5b3480156100e257600080fd5b506100f66100f1366004610ed1565b610252565b6040516001600160a01b0390911681526020015b60405180910390f35b34801561011f57600080fd5b506100f661012e366004610e8c565b61027c565b34801561013f57600080fd5b5061016361014e366004610d43565b60016020526000908152604090205460ff1681565b604051901515815260200161010a565b34801561017f57600080fd5b5061019361018e366004610e61565b6102e6565b005b3480156101a157600080fd5b506101b56101b0366004610ee9565b610450565b60405190815260200161010a565b3480156101cf57600080fd5b506101936101de366004610e61565b61048f565b3480156101ef57600080fd5b506101b560045481565b34801561020557600080fd5b506101b560035481565b34801561021b57600080fd5b506101b560025481565b34801561023157600080fd5b50610245610240366004610d5f565b610640565b60405161010a919061103f565b6000818154811061026257600080fd5b6000918252602090912001546001600160a01b0316905081565b60006102df826102d9856040517f19457468657265756d205369676e6564204d6573736167653a0a3332000000006020820152603c8101829052600090605c01604051602081830303815290604052805190602001209050919050565b90610924565b9392505050565b3360009081526001602052604090205460ff1661031e5760405162461bcd60e51b815260040161031590611052565b60405180910390fd5b6001600160a01b03821660009081526001602052604090205460ff166103865760405162461bcd60e51b815260206004820152601760248201527f72656d6f76655369676e65723a206e6f74206f776e65720000000000000000006044820152606401610315565b600081116103eb5760405162461bcd60e51b815260206004820152602c60248201527f72656d6f76655369676e65723a206d757374206265206e6f6e2d7a65726f207360448201526b1a59dcc81c995c5d5a5c995960a21b6064820152608401610315565b6001600160a01b038216600081815260016020908152604091829020805460ff19168155600285905554915160ff909216151582527ffe545f48304051c4029eb2da9927daa59da0414b4b084fdceaf2955b609b899e91015b60405180910390a25050565b6000306004548686868660405160200161046f96959493929190610f76565b604051602081830303815290604052805190602001209050949350505050565b3360009081526001602052604090205460ff166104be5760405162461bcd60e51b815260040161031590611052565b6001600160a01b0382166105145760405162461bcd60e51b815260206004820152601760248201527f6164645369676e65723a207a65726f20616464726573730000000000000000006044820152606401610315565b6001600160a01b03821660009081526001602052604090205460ff161561057d5760405162461bcd60e51b815260206004820152601b60248201527f6164645369676e65723a206f776e6572206e6f7420756e6971756500000000006044820152606401610315565b600081116105df5760405162461bcd60e51b815260206004820152602960248201527f6164645369676e65723a206d757374206265206e6f6e2d7a65726f2073696773604482015268081c995c5d5a5c995960ba1b6064820152608401610315565b6001600160a01b038216600081815260016020818152604092839020805460ff1916909217825560028590559054915160ff909216151582527ffe545f48304051c4029eb2da9927daa59da0414b4b084fdceaf2955b609b899e9101610444565b3360009081526001602052604090205460609060ff166106725760405162461bcd60e51b815260040161031590611052565b6000610682600354878787610450565b60038054919250600061069483611101565b919050555060008060005b85518110156107a35760006106db858884815181106106ce57634e487b7160e01b600052603260045260246000fd5b602002602001015161027c565b9050826001600160a01b0316816001600160a01b03161161075c5760405162461bcd60e51b815260206004820152603560248201527f657865637574655472616e73616374696f6e3a206475706c6963617465206f7260448201527420756e6f726465726564207369676e61747572657360581b6064820152608401610315565b6001600160a01b038116600090815260016020526040902054909250829060ff1615610790578361078c81611101565b9450505b508061079b81611101565b91505061069f565b5060025482101561080e5760405162461bcd60e51b815260206004820152602f60248201527f657865637574655472616e73616374696f6e3a206e6f7420656e6f756768207660448201526e616c6964207369676e61747572657360881b6064820152608401610315565b600080896001600160a01b0316898960405161082a9190610fd1565b60006040518083038185875af1925050503d8060008114610867576040519150601f19603f3d011682016040523d82523d6000602084013e61086c565b606091505b5091509150816108be5760405162461bcd60e51b815260206004820152601d60248201527f657865637574655472616e73616374696f6e3a207478206661696c65640000006044820152606401610315565b336001600160a01b03167f9053e9ec105157fac8c9308d63e6b22be5f50fe915a3e567419b624311a02d748b8b8b60016003546108fb91906110ba565b8a8760405161090f96959493929190610fed565b60405180910390a29998505050505050505050565b60008060006109338585610948565b91509150610940816109b8565b509392505050565b60008082516041141561097f5760208301516040840151606085015160001a61097387828585610bbc565b945094505050506109b1565b8251604014156109a9576020830151604084015161099e868383610ca9565b9350935050506109b1565b506000905060025b9250929050565b60008160048111156109da57634e487b7160e01b600052602160045260246000fd5b14156109e35750565b6001816004811115610a0557634e487b7160e01b600052602160045260246000fd5b1415610a535760405162461bcd60e51b815260206004820152601860248201527f45434453413a20696e76616c6964207369676e617475726500000000000000006044820152606401610315565b6002816004811115610a7557634e487b7160e01b600052602160045260246000fd5b1415610ac35760405162461bcd60e51b815260206004820152601f60248201527f45434453413a20696e76616c6964207369676e6174757265206c656e677468006044820152606401610315565b6003816004811115610ae557634e487b7160e01b600052602160045260246000fd5b1415610b3e5760405162461bcd60e51b815260206004820152602260248201527f45434453413a20696e76616c6964207369676e6174757265202773272076616c604482015261756560f01b6064820152608401610315565b6004816004811115610b6057634e487b7160e01b600052602160045260246000fd5b1415610bb95760405162461bcd60e51b815260206004820152602260248201527f45434453413a20696e76616c6964207369676e6174757265202776272076616c604482015261756560f01b6064820152608401610315565b50565b6000807f7fffffffffffffffffffffffffffffff5d576e7357a4501ddfe92f46681b20a0831115610bf35750600090506003610ca0565b8460ff16601b14158015610c0b57508460ff16601c14155b15610c1c5750600090506004610ca0565b6040805160008082526020820180845289905260ff881692820192909252606081018690526080810185905260019060a0016020604051602081039080840390855afa158015610c70573d6000803e3d6000fd5b5050604051601f1901519150506001600160a01b038116610c9957600060019250925050610ca0565b9150600090505b94509492505050565b6000806001600160ff1b03831660ff84901c601b01610cca87828885610bbc565b935093505050935093915050565b600082601f830112610ce8578081fd5b813567ffffffffffffffff811115610d0257610d02611132565b610d15601f8201601f1916602001611089565b818152846020838601011115610d29578283fd5b816020850160208301379081016020019190915292915050565b600060208284031215610d54578081fd5b81356102df81611148565b60008060008060808587031215610d74578283fd5b8435610d7f81611148565b93506020858101359350604086013567ffffffffffffffff80821115610da3578485fd5b610daf89838a01610cd8565b94506060880135915080821115610dc4578384fd5b818801915088601f830112610dd7578384fd5b813581811115610de957610de9611132565b8060051b610df8858201611089565b8281528581019085870183870188018e1015610e12578889fd5b8893505b84841015610e4f57803586811115610e2c57898afd5b610e3a8f8a838b0101610cd8565b84525060019390930192918701918701610e16565b50999c989b5096995050505050505050565b60008060408385031215610e73578182fd5b8235610e7e81611148565b946020939093013593505050565b60008060408385031215610e9e578182fd5b82359150602083013567ffffffffffffffff811115610ebb578182fd5b610ec785828601610cd8565b9150509250929050565b600060208284031215610ee2578081fd5b5035919050565b60008060008060808587031215610efe578384fd5b843593506020850135610f1081611148565b925060408501359150606085013567ffffffffffffffff811115610f32578182fd5b610f3e87828801610cd8565b91505092959194509250565b60008151808452610f628160208601602086016110d1565b601f01601f19169290920160200192915050565b60006bffffffffffffffffffffffff19808960601b168352876014840152866034840152808660601b166054840152508360688301528251610fbf8160888501602087016110d1565b91909101608801979650505050505050565b60008251610fe38184602087016110d1565b9190910192915050565b60018060a01b038716815285602082015260c06040820152600061101460c0830187610f4a565b85606084015284608084015282810360a08401526110328185610f4a565b9998505050505050505050565b6020815260006102df6020830184610f4a565b60208082526018908201527f73657220796f7520617265206e6f7420616e206f776e65720000000000000000604082015260600190565b604051601f8201601f1916810167ffffffffffffffff811182821017156110b2576110b2611132565b604052919050565b6000828210156110cc576110cc61111c565b500390565b60005b838110156110ec5781810151838201526020016110d4565b838111156110fb576000848401525b50505050565b60006000198214156111155761111561111c565b5060010190565b634e487b7160e01b600052601160045260246000fd5b634e487b7160e01b600052604160045260246000fd5b6001600160a01b0381168114610bb957600080fdfea26469706673582212201b1d8ec5476e2685bd1091ed415ffc999d5598080edd82484801fb7976f573e764736f6c63430008040033",
  "linkReferences": {},
  "deployedLinkReferences": {}
}